{
  "_format": "hh-sol-artifact-1",
  "contractName": "AgentMarket",
  "sourceName": "contracts/AgentMarket.sol",
  "abi": [
    {
      "anonymous": false,
      "inputs": [
        {
          "indexed": true,
          "internalType": "uint256",
          "name": "agentId",
          "type": "uint256"
        },
        {
          "indexed": true,
          "internalType": "address",
          "name": "hirer",
          "type": "address"
        },
        {
          "indexed": false,
          "internalType": "uint256",
          "name": "paymentAmt",
          "type": "uint256"
        }
      ],
      "name": "AgentUsed",
      "type": "event"
    },
    {
      "inputs": [
        {
          "internalType": "uint256",
          "name": "agentId",
          "type": "uint256"
        }
      ],
      "name": "useAgent",
      "outputs": [],
      "stateMutability": "payable",
      "type": "function"
    },
    {
      "inputs": [],
      "name": "withdraw",
      "outputs": [],
      "stateMutability": "nonpayable",
      "type": "function"
    }
  ],
  "bytecode": "0x608060405234801561001057600080fd5b50610284806100206000396000f3fe6080604052600436106100295760003560e01c80630a2921c21461002e5780633ccfd60b1461004a575b600080fd5b6100486004803603810190610043919061017a565b610061565b005b34801561005657600080fd5b5061005f6100f6565b005b600034116100a4576040517f08c379a000000000000000000000000000000000000000000000000000000000815260040161009b90610204565b60405180910390fd5b3373ffffffffffffffffffffffffffffffffffffffff16817f6d78589f324fefee4a0445a95d0fa6b8df8211e6f679d4b4b04d98d2d9f0ab7c346040516100eb9190610233565b60405180910390a350565b3373ffffffffffffffffffffffffffffffffffffffff166108fc479081150290604051600060405180830381858888f1935050505015801561013c573d6000803e3d6000fd5b50565b600080fd5b6000819050919050565b61015781610144565b811461016257600080fd5b50565b6000813590506101748161014e565b92915050565b6000602082840312156101905761018f61013f565b5b600061019e84828501610165565b91505092915050565b600082825260208201905092915050565b7f583430323a205061796d656e7420726571756972656400000000000000000000600082015250565b60006101ee6016836101a7565b91506101f9826101b8565b602082019050919050565b6000602082019050818103600083015261021d816101e1565b9050919050565b61022d81610144565b82525050565b60006020820190506102486000830184610224565b9291505056fea26469706673582212206c214b80494c6d5d6539f01902b92b7e60845292d9d2097afa2bfd56da27389064736f6c63430008140033",
  "linkReferences": {},
  "deployedLinkReferences": {}
}