{
  "_format": "hh-sol-artifact-1",
  "contractName": "XSovereign",
  "sourceName": "contracts/XSovereign.sol",
  "abi": [
    {
      "inputs": [],
      "stateMutability": "nonpayable",
      "type": "constructor"
    },
    {
      "anonymous": false,
      "inputs": [
        {
          "indexed": true,
          "internalType": "uint256",
          "name": "agentId",
          "type": "uint256"
        },
        {
          "indexed": true,
          "internalType": "address",
          "name": "marketplace",
          "type": "address"
        },
        {
          "indexed": false,
          "internalType": "uint256",
          "name": "amountPaid",
          "type": "uint256"
        },
        {
          "indexed": false,
          "internalType": "string",
          "name": "taskType",
          "type": "string"
        },
        {
          "indexed": false,
          "internalType": "uint256",
          "name": "timestamp",
          "type": "uint256"
        }
      ],
      "name": "AgentHired",
      "type": "event"
    },
    {
      "anonymous": false,
      "inputs": [
        {
          "indexed": true,
          "internalType": "address",
          "name": "from",
          "type": "address"
        },
        {
          "indexed": false,
          "internalType": "uint256",
          "name": "amount",
          "type": "uint256"
        }
      ],
      "name": "FundsDeposited",
      "type": "event"
    },
    {
      "anonymous": false,
      "inputs": [
        {
          "indexed": true,
          "internalType": "address",
          "name": "to",
          "type": "address"
        },
        {
          "indexed": false,
          "internalType": "uint256",
          "name": "amount",
          "type": "uint256"
        }
      ],
      "name": "FundsWithdrawn",
      "type": "event"
    },
    {
      "anonymous": false,
      "inputs": [
        {
          "indexed": true,
          "internalType": "address",
          "name": "oldMarket",
          "type": "address"
        },
        {
          "indexed": true,
          "internalType": "address",
          "name": "newMarket",
          "type": "address"
        }
      ],
      "name": "MarketplaceUpdated",
      "type": "event"
    },
    {
      "inputs": [],
      "name": "agentMarket",
      "outputs": [
        {
          "internalType": "address",
          "name": "",
          "type": "address"
        }
      ],
      "stateMutability": "view",
      "type": "function"
    },
    {
      "inputs": [],
      "name": "getBalance",
      "outputs": [
        {
          "internalType": "uint256",
          "name": "",
          "type": "uint256"
        }
      ],
      "stateMutability": "view",
      "type": "function"
    },
    {
      "inputs": [],
      "name": "getHireHistory",
      "outputs": [
        {
          "components": [
            {
              "internalType": "uint256",
              "name": "agentId",
              "type": "uint256"
            },
            {
              "internalType": "address",
              "name": "marketplace",
              "type": "address"
            },
            {
              "internalType": "uint256",
              "name": "amountPaid",
              "type": "uint256"
            },
            {
              "internalType": "uint256",
              "name": "timestamp",
              "type": "uint256"
            },
            {
              "internalType": "string",
              "name": "taskType",
              "type": "string"
            }
          ],
          "internalType": "struct XSovereign.HireRecord[]",
          "name": "",
          "type": "tuple[]"
        }
      ],
      "stateMutability": "view",
      "type": "function"
    },
    {
      "inputs": [
        {
          "internalType": "uint256",
          "name": "agentId",
          "type": "uint256"
        },
        {
          "internalType": "string",
          "name": "taskType",
          "type": "string"
        }
      ],
      "name": "hireAgent",
      "outputs": [],
      "stateMutability": "payable",
      "type": "function"
    },
    {
      "inputs": [
        {
          "internalType": "address",
          "name": "marketplace",
          "type": "address"
        },
        {
          "internalType": "uint256",
          "name": "agentId",
          "type": "uint256"
        },
        {
          "internalType": "string",
          "name": "taskType",
          "type": "string"
        }
      ],
      "name": "hireAgentFrom",
      "outputs": [],
      "stateMutability": "payable",
      "type": "function"
    },
    {
      "inputs": [
        {
          "internalType": "uint256",
          "name": "",
          "type": "uint256"
        }
      ],
      "name": "hireHistory",
      "outputs": [
        {
          "internalType": "uint256",
          "name": "agentId",
          "type": "uint256"
        },
        {
          "internalType": "address",
          "name": "marketplace",
          "type": "address"
        },
        {
          "internalType": "uint256",
          "name": "amountPaid",
          "type": "uint256"
        },
        {
          "internalType": "uint256",
          "name": "timestamp",
          "type": "uint256"
        },
        {
          "internalType": "string",
          "name": "taskType",
          "type": "string"
        }
      ],
      "stateMutability": "view",
      "type": "function"
    },
    {
      "inputs": [],
      "name": "owner",
      "outputs": [
        {
          "internalType": "address",
          "name": "",
          "type": "address"
        }
      ],
      "stateMutability": "view",
      "type": "function"
    },
    {
      "inputs": [
        {
          "internalType": "address",
          "name": "_market",
          "type": "address"
        }
      ],
      "name": "setAgentMarket",
      "outputs": [],
      "stateMutability": "nonpayable",
      "type": "function"
    },
    {
      "inputs": [],
      "name": "totalHires",
      "outputs": [
        {
          "internalType": "uint256",
          "name": "",
          "type": "uint256"
        }
      ],
      "stateMutability": "view",
      "type": "function"
    },
    {
      "inputs": [],
      "name": "totalSpent",
      "outputs": [
        {
          "internalType": "uint256",
          "name": "",
          "type": "uint256"
        }
      ],
      "stateMutability": "view",
      "type": "function"
    },
    {
      "inputs": [
        {
          "internalType": "address",
          "name": "newOwner",
          "type": "address"
        }
      ],
      "name": "transferOwnership",
      "outputs": [],
      "stateMutability": "nonpayable",
      "type": "function"
    },
    {
      "inputs": [
        {
          "internalType": "uint256",
          "name": "amount",
          "type": "uint256"
        }
      ],
      "name": "withdraw",
      "outputs": [],
      "stateMutability": "nonpayable",
      "type": "function"
    },
    {
      "stateMutability": "payable",
      "type": "receive"
    }
  ],
  "bytecode": "0x608060405234801561001057600080fd5b50336000806101000a81548173ffffffffffffffffffffffffffffffffffffffff021916908373ffffffffffffffffffffffffffffffffffffffff160217905550611fbf806100606000396000f3fe6080604052600436106100ab5760003560e01c80633be5ef00116100645780633be5ef001461020c5780638da5cb5b146102355780639928e30e14610260578063b031e1461461027c578063f2fde38b146102a7578063fb346eab146102d057610100565b80630d0d4f29146101055780631049000e1461013057806312065fe01461015b578063131bc749146101865780632e1a7d4d146101a257806335bc8887146101cb57610100565b36610100573373ffffffffffffffffffffffffffffffffffffffff167f543ba50a5eec5e6178218e364b1d0f396157b3c8fa278522c2cb7fd99407d474346040516100f691906112eb565b60405180910390a2005b600080fd5b34801561011157600080fd5b5061011a6102fb565b604051610127919061151e565b60405180910390f35b34801561013c57600080fd5b50610145610460565b60405161015291906112eb565b60405180910390f35b34801561016757600080fd5b50610170610466565b60405161017d91906112eb565b60405180910390f35b6101a0600480360381019061019b9190611607565b61046e565b005b3480156101ae57600080fd5b506101c960048036038101906101c4919061167b565b61089f565b005b3480156101d757600080fd5b506101f260048036038101906101ed919061167b565b610a48565b604051610203959493929190611701565b60405180910390f35b34801561021857600080fd5b50610233600480360381019061022e919061175b565b610b36565b005b34801561024157600080fd5b5061024a610c8a565b6040516102579190611788565b60405180910390f35b61027a600480360381019061027591906117a3565b610cae565b005b34801561028857600080fd5b50610291611166565b60405161029e9190611788565b60405180910390f35b3480156102b357600080fd5b506102ce60048036038101906102c9919061175b565b61118c565b005b3480156102dc57600080fd5b506102e56112cc565b6040516102f291906112eb565b60405180910390f35b60606002805480602002602001604051908101604052809291908181526020016000905b8282101561045757838290600052602060002090600502016040518060a0016040529081600082015481526020016001820160009054906101000a900473ffffffffffffffffffffffffffffffffffffffff1673ffffffffffffffffffffffffffffffffffffffff1673ffffffffffffffffffffffffffffffffffffffff16815260200160028201548152602001600382015481526020016004820180546103c690611832565b80601f01602080910402602001604051908101604052809291908181526020018280546103f290611832565b801561043f5780601f106104145761010080835404028352916020019161043f565b820191906000526020600020905b81548152906001019060200180831161042257829003601f168201915b5050505050815250508152602001906001019061031f565b50505050905090565b60035481565b600047905090565b60008054906101000a900473ffffffffffffffffffffffffffffffffffffffff1673ffffffffffffffffffffffffffffffffffffffff163373ffffffffffffffffffffffffffffffffffffffff16146104fc576040517f08c379a00000000000000000000000000000000000000000000000000000000081526004016104f3906118af565b60405180910390fd5b600073ffffffffffffffffffffffffffffffffffffffff168473ffffffffffffffffffffffffffffffffffffffff160361056b576040517f08c379a00000000000000000000000000000000000000000000000000000000081526004016105629061191b565b60405180910390fd5b600034116105ae576040517f08c379a00000000000000000000000000000000000000000000000000000000081526004016105a590611987565b60405180910390fd5b60008473ffffffffffffffffffffffffffffffffffffffff1634856040516024016105d991906112eb565b6040516020818303038152906040527f0a2921c2000000000000000000000000000000000000000000000000000000007bffffffffffffffffffffffffffffffffffffffffffffffffffffffff19166020820180517bffffffffffffffffffffffffffffffffffffffffffffffffffffffff838183161783525050505060405161066391906119ee565b60006040518083038185875af1925050503d80600081146106a0576040519150601f19603f3d011682016040523d82523d6000602084013e6106a5565b606091505b50509050806106e9576040517f08c379a00000000000000000000000000000000000000000000000000000000081526004016106e090611a51565b60405180910390fd5b60026040518060a001604052808681526020018773ffffffffffffffffffffffffffffffffffffffff16815260200134815260200142815260200185858080601f016020809104026020016040519081016040528093929190818152602001838380828437600081840152601f19601f8201169050808301925050505050505081525090806001815401808255809150506001900390600052602060002090600502016000909190919091506000820151816000015560208201518160010160006101000a81548173ffffffffffffffffffffffffffffffffffffffff021916908373ffffffffffffffffffffffffffffffffffffffff1602179055506040820151816002015560608201518160030155608082015181600401908161080f9190611c4c565b5050506003600081548092919061082590611d4d565b9190505550346004600082825461083c9190611d95565b925050819055508473ffffffffffffffffffffffffffffffffffffffff16847f1539739df017ee50b9e82c72a0b094704c9ba27561769234cc230212785b5a43348686426040516108909493929190611e05565b60405180910390a35050505050565b60008054906101000a900473ffffffffffffffffffffffffffffffffffffffff1673ffffffffffffffffffffffffffffffffffffffff163373ffffffffffffffffffffffffffffffffffffffff161461092d576040517f08c379a0000000000000000000000000000000000000000000000000000000008152600401610924906118af565b60405180910390fd5b47811115610970576040517f08c379a000000000000000000000000000000000000000000000000000000000815260040161096790611e91565b60405180910390fd5b60008054906101000a900473ffffffffffffffffffffffffffffffffffffffff1673ffffffffffffffffffffffffffffffffffffffff166108fc829081150290604051600060405180830381858888f193505050501580156109d6573d6000803e3d6000fd5b5060008054906101000a900473ffffffffffffffffffffffffffffffffffffffff1673ffffffffffffffffffffffffffffffffffffffff167feaff4b37086828766ad3268786972c0cd24259d4c87a80f9d3963a3c3d999b0d82604051610a3d91906112eb565b60405180910390a250565b60028181548110610a5857600080fd5b90600052602060002090600502016000915090508060000154908060010160009054906101000a900473ffffffffffffffffffffffffffffffffffffffff1690806002015490806003015490806004018054610ab390611832565b80601f0160208091040260200160405190810160405280929190818152602001828054610adf90611832565b8015610b2c5780601f10610b0157610100808354040283529160200191610b2c565b820191906000526020600020905b815481529060010190602001808311610b0f57829003601f168201915b5050505050905085565b60008054906101000a900473ffffffffffffffffffffffffffffffffffffffff1673ffffffffffffffffffffffffffffffffffffffff163373ffffffffffffffffffffffffffffffffffffffff1614610bc4576040517f08c379a0000000000000000000000000000000000000000000000000000000008152600401610bbb906118af565b60405180910390fd5b6000600160009054906101000a900473ffffffffffffffffffffffffffffffffffffffff16905081600160006101000a81548173ffffffffffffffffffffffffffffffffffffffff021916908373ffffffffffffffffffffffffffffffffffffffff1602179055508173ffffffffffffffffffffffffffffffffffffffff168173ffffffffffffffffffffffffffffffffffffffff167fc3e7368ef0a668941a4115b651a9c4f3fa3a13cc6ea105bb91e12bcaa932293c60405160405180910390a35050565b60008054906101000a900473ffffffffffffffffffffffffffffffffffffffff1681565b60008054906101000a900473ffffffffffffffffffffffffffffffffffffffff1673ffffffffffffffffffffffffffffffffffffffff163373ffffffffffffffffffffffffffffffffffffffff1614610d3c576040517f08c379a0000000000000000000000000000000000000000000000000000000008152600401610d33906118af565b60405180910390fd5b600073ffffffffffffffffffffffffffffffffffffffff16600160009054906101000a900473ffffffffffffffffffffffffffffffffffffffff1673ffffffffffffffffffffffffffffffffffffffff1603610dcd576040517f08c379a0000000000000000000000000000000000000000000000000000000008152600401610dc490611efd565b60405180910390fd5b60003411610e10576040517f08c379a0000000000000000000000000000000000000000000000000000000008152600401610e0790611987565b60405180910390fd5b6000600160009054906101000a900473ffffffffffffffffffffffffffffffffffffffff1673ffffffffffffffffffffffffffffffffffffffff163485604051602401610e5d91906112eb565b6040516020818303038152906040527f0a2921c2000000000000000000000000000000000000000000000000000000007bffffffffffffffffffffffffffffffffffffffffffffffffffffffff19166020820180517bffffffffffffffffffffffffffffffffffffffffffffffffffffffff8381831617835250505050604051610ee791906119ee565b60006040518083038185875af1925050503d8060008114610f24576040519150601f19603f3d011682016040523d82523d6000602084013e610f29565b606091505b5050905080610f6d576040517f08c379a0000000000000000000000000000000000000000000000000000000008152600401610f6490611a51565b60405180910390fd5b60026040518060a00160405280868152602001600160009054906101000a900473ffffffffffffffffffffffffffffffffffffffff1673ffffffffffffffffffffffffffffffffffffffff16815260200134815260200142815260200185858080601f016020809104026020016040519081016040528093929190818152602001838380828437600081840152601f19601f8201169050808301925050505050505081525090806001815401808255809150506001900390600052602060002090600502016000909190919091506000820151816000015560208201518160010160006101000a81548173ffffffffffffffffffffffffffffffffffffffff021916908373ffffffffffffffffffffffffffffffffffffffff160217905550604082015181600201556060820151816003015560808201518160040190816110b59190611c4c565b505050600360008154809291906110cb90611d4d565b919050555034600460008282546110e29190611d95565b92505081905550600160009054906101000a900473ffffffffffffffffffffffffffffffffffffffff1673ffffffffffffffffffffffffffffffffffffffff16847f1539739df017ee50b9e82c72a0b094704c9ba27561769234cc230212785b5a43348686426040516111589493929190611e05565b60405180910390a350505050565b600160009054906101000a900473ffffffffffffffffffffffffffffffffffffffff1681565b60008054906101000a900473ffffffffffffffffffffffffffffffffffffffff1673ffffffffffffffffffffffffffffffffffffffff163373ffffffffffffffffffffffffffffffffffffffff161461121a576040517f08c379a0000000000000000000000000000000000000000000000000000000008152600401611211906118af565b60405180910390fd5b600073ffffffffffffffffffffffffffffffffffffffff168173ffffffffffffffffffffffffffffffffffffffff1603611289576040517f08c379a000000000000000000000000000000000000000000000000000000000815260040161128090611f69565b60405180910390fd5b806000806101000a81548173ffffffffffffffffffffffffffffffffffffffff021916908373ffffffffffffffffffffffffffffffffffffffff16021790555050565b60045481565b6000819050919050565b6112e5816112d2565b82525050565b600060208201905061130060008301846112dc565b92915050565b600081519050919050565b600082825260208201905092915050565b6000819050602082019050919050565b61133b816112d2565b82525050565b600073ffffffffffffffffffffffffffffffffffffffff82169050919050565b600061136c82611341565b9050919050565b61137c81611361565b82525050565b600081519050919050565b600082825260208201905092915050565b60005b838110156113bc5780820151818401526020810190506113a1565b60008484015250505050565b6000601f19601f8301169050919050565b60006113e482611382565b6113ee818561138d565b93506113fe81856020860161139e565b611407816113c8565b840191505092915050565b600060a08301600083015161142a6000860182611332565b50602083015161143d6020860182611373565b5060408301516114506040860182611332565b5060608301516114636060860182611332565b506080830151848203608086015261147b82826113d9565b9150508091505092915050565b60006114948383611412565b905092915050565b6000602082019050919050565b60006114b482611306565b6114be8185611311565b9350836020820285016114d085611322565b8060005b8581101561150c57848403895281516114ed8582611488565b94506114f88361149c565b925060208a019950506001810190506114d4565b50829750879550505050505092915050565b6000602082019050818103600083015261153881846114a9565b905092915050565b600080fd5b600080fd5b61155381611361565b811461155e57600080fd5b50565b6000813590506115708161154a565b92915050565b61157f816112d2565b811461158a57600080fd5b50565b60008135905061159c81611576565b92915050565b600080fd5b600080fd5b600080fd5b60008083601f8401126115c7576115c66115a2565b5b8235905067ffffffffffffffff8111156115e4576115e36115a7565b5b602083019150836001820283011115611600576115ff6115ac565b5b9250929050565b6000806000806060858703121561162157611620611540565b5b600061162f87828801611561565b94505060206116408782880161158d565b935050604085013567ffffffffffffffff81111561166157611660611545565b5b61166d878288016115b1565b925092505092959194509250565b60006020828403121561169157611690611540565b5b600061169f8482850161158d565b91505092915050565b6116b181611361565b82525050565b600082825260208201905092915050565b60006116d382611382565b6116dd81856116b7565b93506116ed81856020860161139e565b6116f6816113c8565b840191505092915050565b600060a08201905061171660008301886112dc565b61172360208301876116a8565b61173060408301866112dc565b61173d60608301856112dc565b818103608083015261174f81846116c8565b90509695505050505050565b60006020828403121561177157611770611540565b5b600061177f84828501611561565b91505092915050565b600060208201905061179d60008301846116a8565b92915050565b6000806000604084860312156117bc576117bb611540565b5b60006117ca8682870161158d565b935050602084013567ffffffffffffffff8111156117eb576117ea611545565b5b6117f7868287016115b1565b92509250509250925092565b7f4e487b7100000000000000000000000000000000000000000000000000000000600052602260045260246000fd5b6000600282049050600182168061184a57607f821691505b60208210810361185d5761185c611803565b5b50919050565b7f4e6f74206f776e65720000000000000000000000000000000000000000000000600082015250565b60006118996009836116b7565b91506118a482611863565b602082019050919050565b600060208201905081810360008301526118c88161188c565b9050919050565b7f496e76616c6964206d61726b6574706c61636500000000000000000000000000600082015250565b60006119056013836116b7565b9150611910826118cf565b602082019050919050565b60006020820190508181036000830152611934816118f8565b9050919050565b7f4d7573742073656e64207061796d656e74000000000000000000000000000000600082015250565b60006119716011836116b7565b915061197c8261193b565b602082019050919050565b600060208201905081810360008301526119a081611964565b9050919050565b600081519050919050565b600081905092915050565b60006119c8826119a7565b6119d281856119b2565b93506119e281856020860161139e565b80840191505092915050565b60006119fa82846119bd565b915081905092915050565b7f4167656e742068697265206661696c6564000000000000000000000000000000600082015250565b6000611a3b6011836116b7565b9150611a4682611a05565b602082019050919050565b60006020820190508181036000830152611a6a81611a2e565b9050919050565b7f4e487b7100000000000000000000000000000000000000000000000000000000600052604160045260246000fd5b60008190508160005260206000209050919050565b60006020601f8301049050919050565b600082821b905092915050565b600060088302611b027fffffffffffffffffffffffffffffffffffffffffffffffffffffffffffffffff82611ac5565b611b0c8683611ac5565b95508019841693508086168417925050509392505050565b6000819050919050565b6000611b49611b44611b3f846112d2565b611b24565b6112d2565b9050919050565b6000819050919050565b611b6383611b2e565b611b77611b6f82611b50565b848454611ad2565b825550505050565b600090565b611b8c611b7f565b611b97818484611b5a565b505050565b5b81811015611bbb57611bb0600082611b84565b600181019050611b9d565b5050565b601f821115611c0057611bd181611aa0565b611bda84611ab5565b81016020851015611be9578190505b611bfd611bf585611ab5565b830182611b9c565b50505b505050565b600082821c905092915050565b6000611c2360001984600802611c05565b1980831691505092915050565b6000611c3c8383611c12565b9150826002028217905092915050565b611c5582611382565b67ffffffffffffffff811115611c6e57611c6d611a71565b5b611c788254611832565b611c83828285611bbf565b600060209050601f831160018114611cb65760008415611ca4578287015190505b611cae8582611c30565b865550611d16565b601f198416611cc486611aa0565b60005b82811015611cec57848901518255600182019150602085019450602081019050611cc7565b86831015611d095784890151611d05601f891682611c12565b8355505b6001600288020188555050505b505050505050565b7f4e487b7100000000000000000000000000000000000000000000000000000000600052601160045260246000fd5b6000611d58826112d2565b91507fffffffffffffffffffffffffffffffffffffffffffffffffffffffffffffffff8203611d8a57611d89611d1e565b5b600182019050919050565b6000611da0826112d2565b9150611dab836112d2565b9250828201905080821115611dc357611dc2611d1e565b5b92915050565b82818337600083830152505050565b6000611de483856116b7565b9350611df1838584611dc9565b611dfa836113c8565b840190509392505050565b6000606082019050611e1a60008301876112dc565b8181036020830152611e2d818587611dd8565b9050611e3c60408301846112dc565b95945050505050565b7f496e73756666696369656e742062616c616e6365000000000000000000000000600082015250565b6000611e7b6014836116b7565b9150611e8682611e45565b602082019050919050565b60006020820190508181036000830152611eaa81611e6e565b9050919050565b7f4d61726b6574206e6f7420736574000000000000000000000000000000000000600082015250565b6000611ee7600e836116b7565b9150611ef282611eb1565b602082019050919050565b60006020820190508181036000830152611f1681611eda565b9050919050565b7f496e76616c696420616464726573730000000000000000000000000000000000600082015250565b6000611f53600f836116b7565b9150611f5e82611f1d565b602082019050919050565b60006020820190508181036000830152611f8281611f46565b905091905056fea26469706673582212209ef88dbd6c6ccf74cb800b58f3990c9c4a6f4e1c6db00530a6b54e6c5096fedb64736f6c63430008140033",
  "linkReferences": {},
  "deployedLinkReferences": {}
}